{
  "contractName": "Asignatura",
  "abi": [
    {
      "inputs": [
        {
          "internalType": "string",
          "name": "_nombre",
          "type": "string"
        },
        {
          "internalType": "string",
          "name": "_curso",
          "type": "string"
        }
      ],
      "stateMutability": "nonpayable",
      "type": "constructor"
    },
    {
      "inputs": [],
      "name": "DNIAlreadyInUse",
      "type": "error"
    },
    {
      "inputs": [
        {
          "internalType": "address",
          "name": "",
          "type": "address"
        },
        {
          "internalType": "uint256",
          "name": "",
          "type": "uint256"
        }
      ],
      "name": "calificaciones",
      "outputs": [
        {
          "internalType": "enum Asignatura.TipoNota",
          "name": "tipo",
          "type": "uint8"
        },
        {
          "internalType": "uint256",
          "name": "calificacion",
          "type": "uint256"
        }
      ],
      "stateMutability": "view",
      "type": "function",
      "constant": true
    },
    {
      "inputs": [],
      "name": "cerrada",
      "outputs": [
        {
          "internalType": "bool",
          "name": "",
          "type": "bool"
        }
      ],
      "stateMutability": "view",
      "type": "function",
      "constant": true
    },
    {
      "inputs": [],
      "name": "coordinador",
      "outputs": [
        {
          "internalType": "address",
          "name": "",
          "type": "address"
        }
      ],
      "stateMutability": "view",
      "type": "function",
      "constant": true
    },
    {
      "inputs": [],
      "name": "curso",
      "outputs": [
        {
          "internalType": "string",
          "name": "",
          "type": "string"
        }
      ],
      "stateMutability": "view",
      "type": "function",
      "constant": true
    },
    {
      "inputs": [
        {
          "internalType": "address",
          "name": "",
          "type": "address"
        }
      ],
      "name": "datosAlumno",
      "outputs": [
        {
          "internalType": "string",
          "name": "nombre",
          "type": "string"
        },
        {
          "internalType": "string",
          "name": "dni",
          "type": "string"
        },
        {
          "internalType": "string",
          "name": "email",
          "type": "string"
        }
      ],
      "stateMutability": "view",
      "type": "function",
      "constant": true
    },
    {
      "inputs": [
        {
          "internalType": "address",
          "name": "",
          "type": "address"
        }
      ],
      "name": "datosProfesor",
      "outputs": [
        {
          "internalType": "string",
          "name": "nombre",
          "type": "string"
        }
      ],
      "stateMutability": "view",
      "type": "function",
      "constant": true
    },
    {
      "inputs": [
        {
          "internalType": "uint256",
          "name": "",
          "type": "uint256"
        }
      ],
      "name": "evaluaciones",
      "outputs": [
        {
          "internalType": "string",
          "name": "nombre",
          "type": "string"
        },
        {
          "internalType": "uint256",
          "name": "fecha",
          "type": "uint256"
        },
        {
          "internalType": "uint256",
          "name": "porcentaje",
          "type": "uint256"
        },
        {
          "internalType": "uint256",
          "name": "notaMinima",
          "type": "uint256"
        }
      ],
      "stateMutability": "view",
      "type": "function",
      "constant": true
    },
    {
      "inputs": [
        {
          "internalType": "uint256",
          "name": "",
          "type": "uint256"
        }
      ],
      "name": "matriculas",
      "outputs": [
        {
          "internalType": "address",
          "name": "",
          "type": "address"
        }
      ],
      "stateMutability": "view",
      "type": "function",
      "constant": true
    },
    {
      "inputs": [],
      "name": "nombre",
      "outputs": [
        {
          "internalType": "string",
          "name": "",
          "type": "string"
        }
      ],
      "stateMutability": "view",
      "type": "function",
      "constant": true
    },
    {
      "inputs": [],
      "name": "owner",
      "outputs": [
        {
          "internalType": "address",
          "name": "",
          "type": "address"
        }
      ],
      "stateMutability": "view",
      "type": "function",
      "constant": true
    },
    {
      "inputs": [
        {
          "internalType": "uint256",
          "name": "",
          "type": "uint256"
        }
      ],
      "name": "profesores",
      "outputs": [
        {
          "internalType": "address",
          "name": "",
          "type": "address"
        }
      ],
      "stateMutability": "view",
      "type": "function",
      "constant": true
    },
    {
      "inputs": [],
      "name": "version",
      "outputs": [
        {
          "internalType": "string",
          "name": "",
          "type": "string"
        }
      ],
      "stateMutability": "view",
      "type": "function",
      "constant": true
    },
    {
      "stateMutability": "payable",
      "type": "receive",
      "payable": true
    },
    {
      "inputs": [
        {
          "internalType": "address",
          "name": "_nuevaDireccion",
          "type": "address"
        }
      ],
      "name": "setCoordinador",
      "outputs": [],
      "stateMutability": "nonpayable",
      "type": "function"
    },
    {
      "inputs": [],
      "name": "cerrar",
      "outputs": [],
      "stateMutability": "nonpayable",
      "type": "function"
    },
    {
      "inputs": [],
      "name": "matriculasLength",
      "outputs": [
        {
          "internalType": "uint256",
          "name": "",
          "type": "uint256"
        }
      ],
      "stateMutability": "view",
      "type": "function",
      "constant": true
    },
    {
      "inputs": [],
      "name": "quienSoy",
      "outputs": [
        {
          "internalType": "string",
          "name": "_nombre",
          "type": "string"
        },
        {
          "internalType": "string",
          "name": "_dni",
          "type": "string"
        },
        {
          "internalType": "string",
          "name": "_email",
          "type": "string"
        }
      ],
      "stateMutability": "view",
      "type": "function",
      "constant": true
    },
    {
      "inputs": [
        {
          "internalType": "address",
          "name": "_direccionProfesor",
          "type": "address"
        },
        {
          "internalType": "string",
          "name": "_nombreProfesor",
          "type": "string"
        }
      ],
      "name": "addProfesor",
      "outputs": [],
      "stateMutability": "nonpayable",
      "type": "function"
    },
    {
      "inputs": [],
      "name": "profesoresLength",
      "outputs": [
        {
          "internalType": "uint256",
          "name": "",
          "type": "uint256"
        }
      ],
      "stateMutability": "view",
      "type": "function",
      "constant": true
    },
    {
      "inputs": [
        {
          "internalType": "string",
          "name": "_nombre",
          "type": "string"
        },
        {
          "internalType": "string",
          "name": "_dni",
          "type": "string"
        },
        {
          "internalType": "string",
          "name": "_email",
          "type": "string"
        }
      ],
      "name": "automatricula",
      "outputs": [],
      "stateMutability": "nonpayable",
      "type": "function"
    },
    {
      "inputs": [
        {
          "internalType": "address",
          "name": "_direccion",
          "type": "address"
        },
        {
          "internalType": "string",
          "name": "_nombre",
          "type": "string"
        },
        {
          "internalType": "string",
          "name": "_dni",
          "type": "string"
        },
        {
          "internalType": "string",
          "name": "_email",
          "type": "string"
        }
      ],
      "name": "matricular",
      "outputs": [],
      "stateMutability": "nonpayable",
      "type": "function"
    },
    {
      "inputs": [
        {
          "internalType": "string",
          "name": "_nombre",
          "type": "string"
        },
        {
          "internalType": "uint256",
          "name": "_fecha",
          "type": "uint256"
        },
        {
          "internalType": "uint256",
          "name": "_porcentaje",
          "type": "uint256"
        },
        {
          "internalType": "uint256",
          "name": "_notaMinima",
          "type": "uint256"
        }
      ],
      "name": "creaEvaluacion",
      "outputs": [
        {
          "internalType": "uint256",
          "name": "",
          "type": "uint256"
        }
      ],
      "stateMutability": "nonpayable",
      "type": "function"
    },
    {
      "inputs": [],
      "name": "evaluacionesLength",
      "outputs": [
        {
          "internalType": "uint256",
          "name": "",
          "type": "uint256"
        }
      ],
      "stateMutability": "view",
      "type": "function",
      "constant": true
    },
    {
      "inputs": [
        {
          "internalType": "address",
          "name": "alumno",
          "type": "address"
        },
        {
          "internalType": "uint256",
          "name": "evaluacion",
          "type": "uint256"
        },
        {
          "internalType": "enum Asignatura.TipoNota",
          "name": "tipo",
          "type": "uint8"
        },
        {
          "internalType": "uint256",
          "name": "calificacion",
          "type": "uint256"
        }
      ],
      "name": "califica",
      "outputs": [],
      "stateMutability": "nonpayable",
      "type": "function"
    },
    {
      "inputs": [
        {
          "internalType": "uint256",
          "name": "evaluacion",
          "type": "uint256"
        }
      ],
      "name": "miNota",
      "outputs": [
        {
          "internalType": "enum Asignatura.TipoNota",
          "name": "tipo",
          "type": "uint8"
        },
        {
          "internalType": "uint256",
          "name": "calificacion",
          "type": "uint256"
        }
      ],
      "stateMutability": "view",
      "type": "function",
      "constant": true
    },
    {
      "inputs": [],
      "name": "miNotaFinal",
      "outputs": [
        {
          "internalType": "enum Asignatura.TipoNota",
          "name": "",
          "type": "uint8"
        },
        {
          "internalType": "uint256",
          "name": "calificacionFinal",
          "type": "uint256"
        }
      ],
      "stateMutability": "view",
      "type": "function",
      "constant": true
    },
    {
      "inputs": [
        {
          "internalType": "address",
          "name": "alumno",
          "type": "address"
        }
      ],
      "name": "notaFinal",
      "outputs": [
        {
          "internalType": "enum Asignatura.TipoNota",
          "name": "tipoFinal",
          "type": "uint8"
        },
        {
          "internalType": "uint256",
          "name": "calificacionFinal",
          "type": "uint256"
        }
      ],
      "stateMutability": "view",
      "type": "function",
      "constant": true
    },
    {
      "inputs": [],
      "name": "getProfesores",
      "outputs": [
        {
          "internalType": "address[]",
          "name": "",
          "type": "address[]"
        }
      ],
      "stateMutability": "view",
      "type": "function",
      "constant": true
    }
  ],
  "bytecode": "0x60806040526040518060400160405280600981526020017f32303232204c6974650000000000000000000000000000000000000000000000815250600090816200004a9190620003f3565b503480156200005857600080fd5b5060405162004c2538038062004c2583398181016040528101906200007e91906200063e565b6000825103620000c5576040517f08c379a0000000000000000000000000000000000000000000000000000000008152600401620000bc906200074a565b60405180910390fd5b60008151036200010c576040517f08c379a00000000000000000000000000000000000000000000000000000000081526004016200010390620007bc565b60405180910390fd5b33600160006101000a81548173ffffffffffffffffffffffffffffffffffffffff021916908373ffffffffffffffffffffffffffffffffffffffff16021790555081600490816200015e9190620003f3565b508060069081620001709190620003f3565b505050620007de565b600081519050919050565b7f4e487b7100000000000000000000000000000000000000000000000000000000600052604160045260246000fd5b7f4e487b7100000000000000000000000000000000000000000000000000000000600052602260045260246000fd5b60006002820490506001821680620001fb57607f821691505b602082108103620002115762000210620001b3565b5b50919050565b60008190508160005260206000209050919050565b60006020601f8301049050919050565b600082821b905092915050565b6000600883026200027b7fffffffffffffffffffffffffffffffffffffffffffffffffffffffffffffffff826200023c565b6200028786836200023c565b95508019841693508086168417925050509392505050565b6000819050919050565b6000819050919050565b6000620002d4620002ce620002c8846200029f565b620002a9565b6200029f565b9050919050565b6000819050919050565b620002f083620002b3565b62000308620002ff82620002db565b84845462000249565b825550505050565b600090565b6200031f62000310565b6200032c818484620002e5565b505050565b5b8181101562000354576200034860008262000315565b60018101905062000332565b5050565b601f821115620003a3576200036d8162000217565b62000378846200022c565b8101602085101562000388578190505b620003a062000397856200022c565b83018262000331565b50505b505050565b600082821c905092915050565b6000620003c860001984600802620003a8565b1980831691505092915050565b6000620003e38383620003b5565b9150826002028217905092915050565b620003fe8262000179565b67ffffffffffffffff8111156200041a576200041962000184565b5b620004268254620001e2565b6200043382828562000358565b600060209050601f8311600181146200046b576000841562000456578287015190505b620004628582620003d5565b865550620004d2565b601f1984166200047b8662000217565b60005b82811015620004a5578489015182556001820191506020850194506020810190506200047e565b86831015620004c55784890151620004c1601f891682620003b5565b8355505b6001600288020188555050505b505050505050565b6000604051905090565b600080fd5b600080fd5b600080fd5b600080fd5b6000601f19601f8301169050919050565b6200051482620004f8565b810181811067ffffffffffffffff8211171562000536576200053562000184565b5b80604052505050565b60006200054b620004da565b905062000559828262000509565b919050565b600067ffffffffffffffff8211156200057c576200057b62000184565b5b6200058782620004f8565b9050602081019050919050565b60005b83811015620005b457808201518184015260208101905062000597565b60008484015250505050565b6000620005d7620005d1846200055e565b6200053f565b905082815260208101848484011115620005f657620005f5620004f3565b5b6200060384828562000594565b509392505050565b600082601f830112620006235762000622620004ee565b5b815162000635848260208601620005c0565b91505092915050565b60008060408385031215620006585762000657620004e4565b5b600083015167ffffffffffffffff811115620006795762000678620004e9565b5b62000687858286016200060b565b925050602083015167ffffffffffffffff811115620006ab57620006aa620004e9565b5b620006b9858286016200060b565b9150509250929050565b600082825260208201905092915050565b7f456c206e6f6d627265206465206c6120617369676e6174757261206e6f20707560008201527f65646520657374617220766163696f0000000000000000000000000000000000602082015250565b600062000732602f83620006c3565b91506200073f82620006d4565b604082019050919050565b60006020820190508181036000830152620007658162000723565b9050919050565b7f456c20637572736f206e6f20707565646520657374617220766163696f000000600082015250565b6000620007a4601d83620006c3565b9150620007b1826200076c565b602082019050919050565b60006020820190508181036000830152620007d78162000795565b9050919050565b61443780620007ee6000396000f3fe60806040526004361061019f5760003560e01c8063681d4ca6116100ec578063c83737501161008a578063d51b458411610064578063d51b458414610666578063dab6ff281461068f578063deafcc41146106a6578063f967f986146106d1576101df565b8063c8373750146105bf578063d00de47a146105fc578063d27c3f3c14610628576101df565b80638da5cb5b116100c65780638da5cb5b146105015780639e1d8f4b1461052c578063bc7b35b214610557578063c791813914610582576101df565b8063681d4ca61461046e5780636bf8aad6146104975780637810ff1e146104d6576101df565b806344f7a8cc116101595780635376688311610133578063537668831461039b57806354fd4d50146103c85780635aa4ffe6146103f3578063641945bf14610431576101df565b806344f7a8cc1461030757806347ba31da14610347578063488cf4f514610370576101df565b8062ca0353146101e4578063034856d71461020f5780631d2e4d2b1461024c57806322c4e3941461027557806330322c9b146102a057806342a6dde2146102c9576101df565b366101df576040517f08c379a00000000000000000000000000000000000000000000000000000000081526004016101d690612b35565b60405180910390fd5b600080fd5b3480156101f057600080fd5b506101f96106fc565b6040516102069190612c45565b60405180910390f35b34801561021b57600080fd5b5061023660048036038101906102319190612df7565b61078a565b6040516102439190612e89565b60405180910390f35b34801561025857600080fd5b50610273600480360381019061026e9190612ed0565b61099e565b005b34801561028157600080fd5b5061028a610cea565b6040516102979190612f47565b60405180910390f35b3480156102ac57600080fd5b506102c760048036038101906102c29190612f87565b610cfd565b005b3480156102d557600080fd5b506102f060048036038101906102eb9190612fee565b611011565b6040516102fe9291906130a5565b60405180910390f35b34801561031357600080fd5b5061032e600480360381019061032991906130ce565b61104f565b60405161033e9493929190613169565b60405180910390f35b34801561035357600080fd5b5061036e600480360381019061036991906131b5565b611117565b005b34801561037c57600080fd5b5061038561154f565b6040516103929190612e89565b60405180910390f35b3480156103a757600080fd5b506103b061155c565b6040516103bf93929190613270565b60405180910390f35b3480156103d457600080fd5b506103dd6117c8565b6040516103ea91906132bc565b60405180910390f35b3480156103ff57600080fd5b5061041a600480360381019061041591906132de565b611856565b6040516104289291906130a5565b60405180910390f35b34801561043d57600080fd5b50610458600480360381019061045391906132de565b611b0c565b60405161046591906132bc565b60405180910390f35b34801561047a57600080fd5b506104956004803603810190610490919061330b565b611bb2565b005b3480156104a357600080fd5b506104be60048036038101906104b991906132de565b611f58565b6040516104cd93929190613270565b60405180910390f35b3480156104e257600080fd5b506104eb61211a565b6040516104f891906133c1565b60405180910390f35b34801561050d57600080fd5b50610516612140565b60405161052391906133c1565b60405180910390f35b34801561053857600080fd5b50610541612166565b60405161054e9190612e89565b60405180910390f35b34801561056357600080fd5b5061056c612173565b60405161057991906132bc565b60405180910390f35b34801561058e57600080fd5b506105a960048036038101906105a491906130ce565b612201565b6040516105b691906133c1565b60405180910390f35b3480156105cb57600080fd5b506105e660048036038101906105e191906130ce565b612240565b6040516105f391906133c1565b60405180910390f35b34801561060857600080fd5b5061061161227f565b60405161061f9291906130a5565b60405180910390f35b34801561063457600080fd5b5061064f600480360381019061064a91906130ce565b6124ef565b60405161065d9291906130a5565b60405180910390f35b34801561067257600080fd5b5061068d600480360381019061068891906132de565b612639565b005b34801561069b57600080fd5b506106a46127ed565b005b3480156106b257600080fd5b506106bb612939565b6040516106c891906132bc565b60405180910390f35b3480156106dd57600080fd5b506106e66129c7565b6040516106f39190612e89565b60405180910390f35b6060600380548060200260200160405190810160405280929190818152602001828054801561078057602002820191906000526020600020905b8160009054906101000a900473ffffffffffffffffffffffffffffffffffffffff1673ffffffffffffffffffffffffffffffffffffffff1681526020019060010190808311610736575b5050505050905090565b6000600260009054906101000a900473ffffffffffffffffffffffffffffffffffffffff1673ffffffffffffffffffffffffffffffffffffffff163373ffffffffffffffffffffffffffffffffffffffff161461081c576040517f08c379a000000000000000000000000000000000000000000000000000000000815260040161081390613428565b60405180910390fd5b600260149054906101000a900460ff161561086c576040517f08c379a0000000000000000000000000000000000000000000000000000000008152600401610863906134ba565b60405180910390fd5b60008551036108b0576040517f08c379a00000000000000000000000000000000000000000000000000000000081526004016108a79061354c565b60405180910390fd5b600260149054906101000a900460ff1615610900576040517f08c379a00000000000000000000000000000000000000000000000000000000081526004016108f7906134ba565b60405180910390fd5b6009604051806080016040528087815260200186815260200185815260200184815250908060018154018082558091505060019003906000526020600020906004020160009091909190915060008201518160000190816109619190613778565b50602082015181600101556040820151816002015560608201518160030155505060016009805490506109949190613879565b9050949350505050565b600160009054906101000a900473ffffffffffffffffffffffffffffffffffffffff1673ffffffffffffffffffffffffffffffffffffffff163373ffffffffffffffffffffffffffffffffffffffff1614610a2e576040517f08c379a0000000000000000000000000000000000000000000000000000000008152600401610a259061391f565b60405180910390fd5b600260149054906101000a900460ff1615610a7e576040517f08c379a0000000000000000000000000000000000000000000000000000000008152600401610a75906134ba565b60405180910390fd5b600160009054906101000a900473ffffffffffffffffffffffffffffffffffffffff1673ffffffffffffffffffffffffffffffffffffffff163373ffffffffffffffffffffffffffffffffffffffff1614610b0e576040517f08c379a0000000000000000000000000000000000000000000000000000000008152600401610b05906139b1565b60405180910390fd5b6000815103610b52576040517f08c379a0000000000000000000000000000000000000000000000000000000008152600401610b4990613a43565b60405180910390fd5b6000805b600380549050811015610bf0578373ffffffffffffffffffffffffffffffffffffffff1660038281548110610b8e57610b8d613a63565b5b9060005260206000200160009054906101000a900473ffffffffffffffffffffffffffffffffffffffff1673ffffffffffffffffffffffffffffffffffffffff1603610bdd5760019150610bf0565b8080610be890613a92565b915050610b56565b508015610c32576040517f08c379a0000000000000000000000000000000000000000000000000000000008152600401610c2990613b26565b60405180910390fd5b81600860008573ffffffffffffffffffffffffffffffffffffffff1673ffffffffffffffffffffffffffffffffffffffff1681526020019081526020016000206000019081610c819190613778565b506003839080600181540180825580915050600190039060005260206000200160009091909190916101000a81548173ffffffffffffffffffffffffffffffffffffffff021916908373ffffffffffffffffffffffffffffffffffffffff160217905550505050565b600260149054906101000a900460ff1681565b6000805b600380549050811015610d9b573373ffffffffffffffffffffffffffffffffffffffff1660038281548110610d3957610d38613a63565b5b9060005260206000200160009054906101000a900473ffffffffffffffffffffffffffffffffffffffff1673ffffffffffffffffffffffffffffffffffffffff1603610d885760019150610d9b565b8080610d9390613a92565b915050610d01565b5080610ddc576040517f08c379a0000000000000000000000000000000000000000000000000000000008152600401610dd390613b92565b60405180910390fd5b600260149054906101000a900460ff1615610e2c576040517f08c379a0000000000000000000000000000000000000000000000000000000008152600401610e23906134ba565b60405180910390fd5b610e35856129d4565b610e74576040517f08c379a0000000000000000000000000000000000000000000000000000000008152600401610e6b90613c24565b60405180910390fd5b6009805490508410610ebb576040517f08c379a0000000000000000000000000000000000000000000000000000000008152600401610eb290613cb6565b60405180910390fd5b6103e8821115610f00576040517f08c379a0000000000000000000000000000000000000000000000000000000008152600401610ef790613d6e565b60405180910390fd5b600260149054906101000a900460ff1615610f50576040517f08c379a0000000000000000000000000000000000000000000000000000000008152600401610f47906134ba565b60405180910390fd5b60006040518060400160405280856002811115610f7057610f6f61302e565b5b815260200184815250905080600a60008873ffffffffffffffffffffffffffffffffffffffff1673ffffffffffffffffffffffffffffffffffffffff168152602001908152602001600020600087815260200190815260200160002060008201518160000160006101000a81548160ff02191690836002811115610ff757610ff661302e565b5b021790555060208201518160010155905050505050505050565b600a602052816000526040600020602052806000526040600020600091509150508060000160009054906101000a900460ff16908060010154905082565b6009818154811061105f57600080fd5b90600052602060002090600402016000915090508060000180546110829061359b565b80601f01602080910402602001604051908101604052809291908181526020018280546110ae9061359b565b80156110fb5780601f106110d0576101008083540402835291602001916110fb565b820191906000526020600020905b8154815290600101906020018083116110de57829003601f168201915b5050505050908060010154908060020154908060030154905084565b600160009054906101000a900473ffffffffffffffffffffffffffffffffffffffff1673ffffffffffffffffffffffffffffffffffffffff163373ffffffffffffffffffffffffffffffffffffffff16146111a7576040517f08c379a000000000000000000000000000000000000000000000000000000000815260040161119e9061391f565b60405180910390fd5b60008351036111eb576040517f08c379a00000000000000000000000000000000000000000000000000000000081526004016111e290613dda565b60405180910390fd5b600082510361122f576040517f08c379a000000000000000000000000000000000000000000000000000000000815260040161122690613e46565b60405180910390fd5b6000600760008673ffffffffffffffffffffffffffffffffffffffff1673ffffffffffffffffffffffffffffffffffffffff168152602001908152602001600020600101805461127e9061359b565b9050146112c0576040517f08c379a00000000000000000000000000000000000000000000000000000000081526004016112b790613eb2565b60405180910390fd5b600260149054906101000a900460ff1615611310576040517f08c379a0000000000000000000000000000000000000000000000000000000008152600401611307906134ba565b60405180910390fd5b60005b60058054905081101561144057826040516020016113319190613f0e565b60405160208183030381529060405280519060200120600760006005848154811061135f5761135e613a63565b5b9060005260206000200160009054906101000a900473ffffffffffffffffffffffffffffffffffffffff1673ffffffffffffffffffffffffffffffffffffffff1673ffffffffffffffffffffffffffffffffffffffff1681526020019081526020016000206001016040516020016113d79190613fa8565b604051602081830303815290604052805190602001200361142d576040517f08c379a000000000000000000000000000000000000000000000000000000000815260040161142490614031565b60405180910390fd5b808061143890613a92565b915050611313565b506000604051806060016040528085815260200184815260200183815250905080600760008773ffffffffffffffffffffffffffffffffffffffff1673ffffffffffffffffffffffffffffffffffffffff16815260200190815260200160002060008201518160000190816114b59190613778565b5060208201518160010190816114cb9190613778565b5060408201518160020190816114e19190613778565b509050506005859080600181540180825580915050600190039060005260206000200160009091909190916101000a81548173ffffffffffffffffffffffffffffffffffffffff021916908373ffffffffffffffffffffffffffffffffffffffff1602179055505050505050565b6000600980549050905090565b606080606061156a336129d4565b6115a9576040517f08c379a00000000000000000000000000000000000000000000000000000000081526004016115a0906140c3565b60405180910390fd5b6000600760003373ffffffffffffffffffffffffffffffffffffffff1673ffffffffffffffffffffffffffffffffffffffff1681526020019081526020016000206040518060600160405290816000820180546116059061359b565b80601f01602080910402602001604051908101604052809291908181526020018280546116319061359b565b801561167e5780601f106116535761010080835404028352916020019161167e565b820191906000526020600020905b81548152906001019060200180831161166157829003601f168201915b505050505081526020016001820180546116979061359b565b80601f01602080910402602001604051908101604052809291908181526020018280546116c39061359b565b80156117105780601f106116e557610100808354040283529160200191611710565b820191906000526020600020905b8154815290600101906020018083116116f357829003601f168201915b505050505081526020016002820180546117299061359b565b80601f01602080910402602001604051908101604052809291908181526020018280546117559061359b565b80156117a25780601f10611777576101008083540402835291602001916117a2565b820191906000526020600020905b81548152906001019060200180831161178557829003601f168201915b505050505081525050905080600001519350806020015192508060400151915050909192565b600080546117d59061359b565b80601f01602080910402602001604051908101604052809291908181526020018280546118019061359b565b801561184e5780601f106118235761010080835404028352916020019161184e565b820191906000526020600020905b81548152906001019060200180831161183157829003601f168201915b505050505081565b600080600260009054906101000a900473ffffffffffffffffffffffffffffffffffffffff1673ffffffffffffffffffffffffffffffffffffffff163373ffffffffffffffffffffffffffffffffffffffff16146118e9576040517f08c379a00000000000000000000000000000000000000000000000000000000081526004016118e090613428565b60405180910390fd5b600091506000905060008060005b600980549050811015611acb576000600a60008873ffffffffffffffffffffffffffffffffffffffff1673ffffffffffffffffffffffffffffffffffffffff16815260200190815260200160002060008381526020019081526020016000206040518060400160405290816000820160009054906101000a900460ff1660028111156119865761198561302e565b5b60028111156119985761199761302e565b5b81526020016001820154815250509050600060028111156119bc576119bb61302e565b5b816000015160028111156119d3576119d261302e565b5b036119e8576000809550955050505050611b07565b6002808111156119fb576119fa61302e565b5b81600001516002811115611a1257611a1161302e565b5b03611a6e57606460098381548110611a2d57611a2c613a63565b5b9060005260206000209060040201600201548260200151611a4e91906140e3565b611a589190614154565b85611a639190614185565b945060029550611ab7565b60016002811115611a8257611a8161302e565b5b81600001516002811115611a9957611a9861302e565b5b03611ab657600183611aab9190614185565b925060019350600195505b5b508080611ac390613a92565b9150506118f7565b506009805490508103611ae75760016000935093505050611b07565b6101f383118015611af55750815b15611b04576101f39250600293505b50505b915091565b6008602052806000526040600020600091509050806000018054611b2f9061359b565b80601f0160208091040260200160405190810160405280929190818152602001828054611b5b9061359b565b8015611ba85780601f10611b7d57610100808354040283529160200191611ba8565b820191906000526020600020905b815481529060010190602001808311611b8b57829003601f168201915b5050505050905081565b611bbb336129d4565b15611bfb576040517f08c379a0000000000000000000000000000000000000000000000000000000008152600401611bf29061422b565b60405180910390fd5b600260149054906101000a900460ff1615611c4b576040517f08c379a0000000000000000000000000000000000000000000000000000000008152600401611c42906134ba565b60405180910390fd5b6000835103611c8f576040517f08c379a0000000000000000000000000000000000000000000000000000000008152600401611c8690613dda565b60405180910390fd5b6000825103611cd3576040517f08c379a0000000000000000000000000000000000000000000000000000000008152600401611cca90613dda565b60405180910390fd5b600260149054906101000a900460ff1615611d23576040517f08c379a0000000000000000000000000000000000000000000000000000000008152600401611d1a906134ba565b60405180910390fd5b60005b600580549050811015611e4a5782604051602001611d449190613f0e565b604051602081830303815290604052805190602001206007600060058481548110611d7257611d71613a63565b5b9060005260206000200160009054906101000a900473ffffffffffffffffffffffffffffffffffffffff1673ffffffffffffffffffffffffffffffffffffffff1673ffffffffffffffffffffffffffffffffffffffff168152602001908152602001600020600101604051602001611dea9190613fa8565b6040516020818303038152906040528051906020012003611e37576040517fcf6228be00000000000000000000000000000000000000000000000000000000815260040160405180910390fd5b8080611e4290613a92565b915050611d26565b506000604051806060016040528085815260200184815260200183815250905080600760003373ffffffffffffffffffffffffffffffffffffffff1673ffffffffffffffffffffffffffffffffffffffff1681526020019081526020016000206000820151816000019081611ebf9190613778565b506020820151816001019081611ed59190613778565b506040820151816002019081611eeb9190613778565b509050506005339080600181540180825580915050600190039060005260206000200160009091909190916101000a81548173ffffffffffffffffffffffffffffffffffffffff021916908373ffffffffffffffffffffffffffffffffffffffff16021790555050505050565b6007602052806000526040600020600091509050806000018054611f7b9061359b565b80601f0160208091040260200160405190810160405280929190818152602001828054611fa79061359b565b8015611ff45780601f10611fc957610100808354040283529160200191611ff4565b820191906000526020600020905b815481529060010190602001808311611fd757829003601f168201915b5050505050908060010180546120099061359b565b80601f01602080910402602001604051908101604052809291908181526020018280546120359061359b565b80156120825780601f1061205757610100808354040283529160200191612082565b820191906000526020600020905b81548152906001019060200180831161206557829003601f168201915b5050505050908060020180546120979061359b565b80601f01602080910402602001604051908101604052809291908181526020018280546120c39061359b565b80156121105780601f106120e557610100808354040283529160200191612110565b820191906000526020600020905b8154815290600101906020018083116120f357829003601f168201915b5050505050905083565b600260009054906101000a900473ffffffffffffffffffffffffffffffffffffffff1681565b600160009054906101000a900473ffffffffffffffffffffffffffffffffffffffff1681565b6000600580549050905090565b600480546121809061359b565b80601f01602080910402602001604051908101604052809291908181526020018280546121ac9061359b565b80156121f95780601f106121ce576101008083540402835291602001916121f9565b820191906000526020600020905b8154815290600101906020018083116121dc57829003601f168201915b505050505081565b6005818154811061221157600080fd5b906000526020600020016000915054906101000a900473ffffffffffffffffffffffffffffffffffffffff1681565b6003818154811061225057600080fd5b906000526020600020016000915054906101000a900473ffffffffffffffffffffffffffffffffffffffff1681565b60008061228b336129d4565b6122ca576040517f08c379a00000000000000000000000000000000000000000000000000000000081526004016122c1906140c3565b60405180910390fd5b600080915060008060005b6009805490508110156124aa576000600a60003373ffffffffffffffffffffffffffffffffffffffff1673ffffffffffffffffffffffffffffffffffffffff16815260200190815260200160002060008381526020019081526020016000206040518060400160405290816000820160009054906101000a900460ff1660028111156123645761236361302e565b5b60028111156123765761237561302e565b5b815260200160018201548152505090506000600281111561239a5761239961302e565b5b816000015160028111156123b1576123b061302e565b5b036123c7576000809650965050505050506124eb565b6002808111156123da576123d961302e565b5b816000015160028111156123f1576123f061302e565b5b0361244d5760646009838154811061240c5761240b613a63565b5b906000526020600020906004020160020154826020015161242d91906140e3565b6124379190614154565b866124429190614185565b955060029450612496565b600160028111156124615761246061302e565b5b816000015160028111156124785761247761302e565b5b036124955760018361248a9190614185565b925060019350600194505b5b5080806124a290613a92565b9150506122d5565b5060098054905081036124c75760016000945094505050506124eb565b6101f3841180156124d55750815b156124e4576101f39350600292505b8294505050505b9091565b6000806124fb336129d4565b61253a576040517f08c379a0000000000000000000000000000000000000000000000000000000008152600401612531906140c3565b60405180910390fd5b6009805490508310612581576040517f08c379a0000000000000000000000000000000000000000000000000000000008152600401612578906142bd565b60405180910390fd5b6000600a60003373ffffffffffffffffffffffffffffffffffffffff1673ffffffffffffffffffffffffffffffffffffffff16815260200190815260200160002060008581526020019081526020016000206040518060400160405290816000820160009054906101000a900460ff1660028111156126035761260261302e565b5b60028111156126155761261461302e565b5b81526020016001820154815250509050806000015192508060200151915050915091565b600160009054906101000a900473ffffffffffffffffffffffffffffffffffffffff1673ffffffffffffffffffffffffffffffffffffffff163373ffffffffffffffffffffffffffffffffffffffff16146126c9576040517f08c379a00000000000000000000000000000000000000000000000000000000081526004016126c09061391f565b60405180910390fd5b600260149054906101000a900460ff1615612719576040517f08c379a0000000000000000000000000000000000000000000000000000000008152600401612710906134ba565b60405180910390fd5b600160009054906101000a900473ffffffffffffffffffffffffffffffffffffffff1673ffffffffffffffffffffffffffffffffffffffff163373ffffffffffffffffffffffffffffffffffffffff16146127a9576040517f08c379a00000000000000000000000000000000000000000000000000000000081526004016127a09061434f565b60405180910390fd5b80600260006101000a81548173ffffffffffffffffffffffffffffffffffffffff021916908373ffffffffffffffffffffffffffffffffffffffff16021790555050565b600260009054906101000a900473ffffffffffffffffffffffffffffffffffffffff1673ffffffffffffffffffffffffffffffffffffffff163373ffffffffffffffffffffffffffffffffffffffff161461287d576040517f08c379a000000000000000000000000000000000000000000000000000000000815260040161287490613428565b60405180910390fd5b600260009054906101000a900473ffffffffffffffffffffffffffffffffffffffff1673ffffffffffffffffffffffffffffffffffffffff163373ffffffffffffffffffffffffffffffffffffffff161461290d576040517f08c379a0000000000000000000000000000000000000000000000000000000008152600401612904906143e1565b60405180910390fd5b600260149054906101000a900460ff1615600260146101000a81548160ff021916908315150217905550565b600680546129469061359b565b80601f01602080910402602001604051908101604052809291908181526020018280546129729061359b565b80156129bf5780601f10612994576101008083540402835291602001916129bf565b820191906000526020600020905b8154815290600101906020018083116129a257829003601f168201915b505050505081565b6000600380549050905090565b600080600760008473ffffffffffffffffffffffffffffffffffffffff1673ffffffffffffffffffffffffffffffffffffffff1681526020019081526020016000206000018054612a249061359b565b80601f0160208091040260200160405190810160405280929190818152602001828054612a509061359b565b8015612a9d5780601f10612a7257610100808354040283529160200191612a9d565b820191906000526020600020905b815481529060010190602001808311612a8057829003601f168201915b50505050509050600081511415915050919050565b600082825260208201905092915050565b7f4e6f207365207065726d697465206c6120726563657063696f6e20646520646960008201527f6e65726f2e000000000000000000000000000000000000000000000000000000602082015250565b6000612b1f602583612ab2565b9150612b2a82612ac3565b604082019050919050565b60006020820190508181036000830152612b4e81612b12565b9050919050565b600081519050919050565b600082825260208201905092915050565b6000819050602082019050919050565b600073ffffffffffffffffffffffffffffffffffffffff82169050919050565b6000612bac82612b81565b9050919050565b612bbc81612ba1565b82525050565b6000612bce8383612bb3565b60208301905092915050565b6000602082019050919050565b6000612bf282612b55565b612bfc8185612b60565b9350612c0783612b71565b8060005b83811015612c38578151612c1f8882612bc2565b9750612c2a83612bda565b925050600181019050612c0b565b5085935050505092915050565b60006020820190508181036000830152612c5f8184612be7565b905092915050565b6000604051905090565b600080fd5b600080fd5b600080fd5b600080fd5b6000601f19601f8301169050919050565b7f4e487b7100000000000000000000000000000000000000000000000000000000600052604160045260246000fd5b612cce82612c85565b810181811067ffffffffffffffff82111715612ced57612cec612c96565b5b80604052505050565b6000612d00612c67565b9050612d0c8282612cc5565b919050565b600067ffffffffffffffff821115612d2c57612d2b612c96565b5b612d3582612c85565b9050602081019050919050565b82818337600083830152505050565b6000612d64612d5f84612d11565b612cf6565b905082815260208101848484011115612d8057612d7f612c80565b5b612d8b848285612d42565b509392505050565b600082601f830112612da857612da7612c7b565b5b8135612db8848260208601612d51565b91505092915050565b6000819050919050565b612dd481612dc1565b8114612ddf57600080fd5b50565b600081359050612df181612dcb565b92915050565b60008060008060808587031215612e1157612e10612c71565b5b600085013567ffffffffffffffff811115612e2f57612e2e612c76565b5b612e3b87828801612d93565b9450506020612e4c87828801612de2565b9350506040612e5d87828801612de2565b9250506060612e6e87828801612de2565b91505092959194509250565b612e8381612dc1565b82525050565b6000602082019050612e9e6000830184612e7a565b92915050565b612ead81612ba1565b8114612eb857600080fd5b50565b600081359050612eca81612ea4565b92915050565b60008060408385031215612ee757612ee6612c71565b5b6000612ef585828601612ebb565b925050602083013567ffffffffffffffff811115612f1657612f15612c76565b5b612f2285828601612d93565b9150509250929050565b60008115159050919050565b612f4181612f2c565b82525050565b6000602082019050612f5c6000830184612f38565b92915050565b60038110612f6f57600080fd5b50565b600081359050612f8181612f62565b92915050565b60008060008060808587031215612fa157612fa0612c71565b5b6000612faf87828801612ebb565b9450506020612fc087828801612de2565b9350506040612fd187828801612f72565b9250506060612fe287828801612de2565b91505092959194509250565b6000806040838503121561300557613004612c71565b5b600061301385828601612ebb565b925050602061302485828601612de2565b9150509250929050565b7f4e487b7100000000000000000000000000000000000000000000000000000000600052602160045260246000fd5b6003811061306e5761306d61302e565b5b50565b600081905061307f8261305d565b919050565b600061308f82613071565b9050919050565b61309f81613084565b82525050565b60006040820190506130ba6000830185613096565b6130c76020830184612e7a565b9392505050565b6000602082840312156130e4576130e3612c71565b5b60006130f284828501612de2565b91505092915050565b600081519050919050565b60005b83811015613124578082015181840152602081019050613109565b60008484015250505050565b600061313b826130fb565b6131458185612ab2565b9350613155818560208601613106565b61315e81612c85565b840191505092915050565b600060808201905081810360008301526131838187613130565b90506131926020830186612e7a565b61319f6040830185612e7a565b6131ac6060830184612e7a565b95945050505050565b600080600080608085870312156131cf576131ce612c71565b5b60006131dd87828801612ebb565b945050602085013567ffffffffffffffff8111156131fe576131fd612c76565b5b61320a87828801612d93565b935050604085013567ffffffffffffffff81111561322b5761322a612c76565b5b61323787828801612d93565b925050606085013567ffffffffffffffff81111561325857613257612c76565b5b61326487828801612d93565b91505092959194509250565b6000606082019050818103600083015261328a8186613130565b9050818103602083015261329e8185613130565b905081810360408301526132b28184613130565b9050949350505050565b600060208201905081810360008301526132d68184613130565b905092915050565b6000602082840312156132f4576132f3612c71565b5b600061330284828501612ebb565b91505092915050565b60008060006060848603121561332457613323612c71565b5b600084013567ffffffffffffffff81111561334257613341612c76565b5b61334e86828701612d93565b935050602084013567ffffffffffffffff81111561336f5761336e612c76565b5b61337b86828701612d93565b925050604084013567ffffffffffffffff81111561339c5761339b612c76565b5b6133a886828701612d93565b9150509250925092565b6133bb81612ba1565b82525050565b60006020820190506133d660008301846133b2565b92915050565b7f536f6c6f207065726d697469646f20616c20636f6f7264696e61646f72000000600082015250565b6000613412601d83612ab2565b915061341d826133dc565b602082019050919050565b6000602082019050818103600083015261344181613405565b9050919050565b7f4e6f2073652070756564656e207265616c697a61722063616d62696f7320656e60008201527f20756e6120617369676e61747572612063657272616461000000000000000000602082015250565b60006134a4603783612ab2565b91506134af82613448565b604082019050919050565b600060208201905081810360008301526134d381613497565b9050919050565b7f456c206e6f6d627265206465206c61206576616c756163696f6e206e6f20707560008201527f65646520657374617220766163696f0000000000000000000000000000000000602082015250565b6000613536602f83612ab2565b9150613541826134da565b604082019050919050565b6000602082019050818103600083015261356581613529565b9050919050565b7f4e487b7100000000000000000000000000000000000000000000000000000000600052602260045260246000fd5b600060028204905060018216806135b357607f821691505b6020821081036135c6576135c561356c565b5b50919050565b60008190508160005260206000209050919050565b60006020601f8301049050919050565b600082821b905092915050565b60006008830261362e7fffffffffffffffffffffffffffffffffffffffffffffffffffffffffffffffff826135f1565b61363886836135f1565b95508019841693508086168417925050509392505050565b6000819050919050565b600061367561367061366b84612dc1565b613650565b612dc1565b9050919050565b6000819050919050565b61368f8361365a565b6136a361369b8261367c565b8484546135fe565b825550505050565b600090565b6136b86136ab565b6136c3818484613686565b505050565b5b818110156136e7576136dc6000826136b0565b6001810190506136c9565b5050565b601f82111561372c576136fd816135cc565b613706846135e1565b81016020851015613715578190505b613729613721856135e1565b8301826136c8565b50505b505050565b600082821c905092915050565b600061374f60001984600802613731565b1980831691505092915050565b6000613768838361373e565b9150826002028217905092915050565b613781826130fb565b67ffffffffffffffff81111561379a57613799612c96565b5b6137a4825461359b565b6137af8282856136eb565b600060209050601f8311600181146137e257600084156137d0578287015190505b6137da858261375c565b865550613842565b601f1984166137f0866135cc565b60005b82811015613818578489015182556001820191506020850194506020810190506137f3565b868310156138355784890151613831601f89168261373e565b8355505b6001600288020188555050505b505050505050565b7f4e487b7100000000000000000000000000000000000000000000000000000000600052601160045260246000fd5b600061388482612dc1565b915061388f83612dc1565b92508282039050818111156138a7576138a661384a565b5b92915050565b7f536f6c6f207065726d697469646f20616c206f776e65722064656c20636f6e7460008201527f7261746f00000000000000000000000000000000000000000000000000000000602082015250565b6000613909602483612ab2565b9150613914826138ad565b604082019050919050565b60006020820190508181036000830152613938816138fc565b9050919050565b7f536f6c6f20656c206f776e65722070756564652075736172206573746120667560008201527f6e63696f6e000000000000000000000000000000000000000000000000000000602082015250565b600061399b602583612ab2565b91506139a68261393f565b604082019050919050565b600060208201905081810360008301526139ca8161398e565b9050919050565b7f456c206e6f6d6272652064656c2070726f6665736f72206e6f2070756564652060008201527f657374617220766163696f000000000000000000000000000000000000000000602082015250565b6000613a2d602b83612ab2565b9150613a38826139d1565b604082019050919050565b60006020820190508181036000830152613a5c81613a20565b9050919050565b7f4e487b7100000000000000000000000000000000000000000000000000000000600052603260045260246000fd5b6000613a9d82612dc1565b91507fffffffffffffffffffffffffffffffffffffffffffffffffffffffffffffffff8203613acf57613ace61384a565b5b600182019050919050565b7f456c2070726f6665736f72207961206573746120656e206c61206c6973746100600082015250565b6000613b10601f83612ab2565b9150613b1b82613ada565b602082019050919050565b60006020820190508181036000830152613b3f81613b03565b9050919050565b7f536f6c6f207065726d697469646f20616c2070726f6665736f72000000000000600082015250565b6000613b7c601a83612ab2565b9150613b8782613b46565b602082019050919050565b60006020820190508181036000830152613bab81613b6f565b9050919050565b7f536f6c6f2073652070756564652063616c696669636172206120756e20616c7560008201527f6d6e6f206d6174726963756c61646f2e00000000000000000000000000000000602082015250565b6000613c0e603083612ab2565b9150613c1982613bb2565b604082019050919050565b60006020820190508181036000830152613c3d81613c01565b9050919050565b7f4e6f2073652070756564652063616c69666963617220756e61206576616c756160008201527f63696f6e20717565206e6f206578697374652e00000000000000000000000000602082015250565b6000613ca0603383612ab2565b9150613cab82613c44565b604082019050919050565b60006020820190508181036000830152613ccf81613c93565b9050919050565b7f4e6f2073652070756564652063616c69666963617220636f6e20756e61206e6f60008201527f7461207375706572696f722061206c61206d6178696d61207065726d6974696460208201527f612e000000000000000000000000000000000000000000000000000000000000604082015250565b6000613d58604283612ab2565b9150613d6382613cd6565b606082019050919050565b60006020820190508181036000830152613d8781613d4b565b9050919050565b7f456c206e6f6d627265206e6f20707565646520657374617220766163696f0000600082015250565b6000613dc4601e83612ab2565b9150613dcf82613d8e565b602082019050919050565b60006020820190508181036000830152613df381613db7565b9050919050565b7f456c20646e69206e6f20707565646520657374617220766163696f0000000000600082015250565b6000613e30601b83612ab2565b9150613e3b82613dfa565b602082019050919050565b60006020820190508181036000830152613e5f81613e23565b9050919050565b7f4573746520616c756d6e6f2079612065737461207265676973747261646f0000600082015250565b6000613e9c601e83612ab2565b9150613ea782613e66565b602082019050919050565b60006020820190508181036000830152613ecb81613e8f565b9050919050565b600081905092915050565b6000613ee8826130fb565b613ef28185613ed2565b9350613f02818560208601613106565b80840191505092915050565b6000613f1a8284613edd565b915081905092915050565b60008154613f328161359b565b613f3c8186613ed2565b94506001821660008114613f575760018114613f6c57613f9f565b60ff1983168652811515820286019350613f9f565b613f75856135cc565b60005b83811015613f9757815481890152600182019150602081019050613f78565b838801955050505b50505092915050565b6000613fb48284613f25565b915081905092915050565b7f4573746520444e49207961206573746120656e2075736f20706f72206f74726f60008201527f20616c756d6e6f2e000000000000000000000000000000000000000000000000602082015250565b600061401b602883612ab2565b915061402682613fbf565b604082019050919050565b6000602082019050818103600083015261404a8161400e565b9050919050565b7f536f6c6f207065726d697469646f206120616c756d6e6f73206d61747269637560008201527f6c61646f73000000000000000000000000000000000000000000000000000000602082015250565b60006140ad602583612ab2565b91506140b882614051565b604082019050919050565b600060208201905081810360008301526140dc816140a0565b9050919050565b60006140ee82612dc1565b91506140f983612dc1565b925082820261410781612dc1565b9150828204841483151761411e5761411d61384a565b5b5092915050565b7f4e487b7100000000000000000000000000000000000000000000000000000000600052601260045260246000fd5b600061415f82612dc1565b915061416a83612dc1565b92508261417a57614179614125565b5b828204905092915050565b600061419082612dc1565b915061419b83612dc1565b92508282019050808211156141b3576141b261384a565b5b92915050565b7f536f6c6f207065726d697469646f206120616c756d6e6f73206e6f206d61747260008201527f6963756c61646f73000000000000000000000000000000000000000000000000602082015250565b6000614215602883612ab2565b9150614220826141b9565b604082019050919050565b6000602082019050818103600083015261424481614208565b9050919050565b7f456c20696e64696365206465206c61206576616c756163696f6e206e6f20657860008201527f697374652e000000000000000000000000000000000000000000000000000000602082015250565b60006142a7602583612ab2565b91506142b28261424b565b604082019050919050565b600060208201905081810360008301526142d68161429a565b9050919050565b7f536f6c6f20656c206f776e65722070756564652065737461626c65636572206160008201527f6c20636f6f7264696e61646f7200000000000000000000000000000000000000602082015250565b6000614339602d83612ab2565b9150614344826142dd565b604082019050919050565b600060208201905081810360008301526143688161432c565b9050919050565b7f536f6c6f20656c20636f6f7264696e61646f722070756564652063657272617260008201527f206c6120617369676e6174757261000000000000000000000000000000000000602082015250565b60006143cb602e83612ab2565b91506143d68261436f565b604082019050919050565b600060208201905081810360008301526143fa816143be565b905091905056fea264697066735822122044f196de587c9288bcf7aa4fdb13d00dd3f97ccde7c1f0ed3738e66fcf9b4da964736f6c63430008130033",
  "immutableReferences": {},
  "source": "// SPDX-License-Identifier: UNLICENSED\r\npragma solidity ^0.8.16;\r\n\r\n/**\r\n *  El contrato Asignatura que representa una asignatura de la carrera.\r\n * \r\n * Version Lite - Practicas\r\n */\r\n \r\n contract Asignatura {\r\n\r\n    /// Version 2022 Lite - Teoria\r\n    string public version = \"2022 Lite\";\r\n\r\n    /**\r\n     * address del profesor que ha desplegado el contrato.\r\n     * El contrato lo despliega el profesor.\r\n     */\r\n     /// Direccin del owner\r\n    address public owner;\r\n    /// Direccin del coordinador\r\n    address public coordinador;\r\n    /// Setter de la direccin del coordinador\r\n    function setCoordinador(address _nuevaDireccion) soloOwner soloAbierta public {\r\n        require(msg.sender == owner, \"Solo el owner puede establecer al coordinador\");\r\n        coordinador = _nuevaDireccion;\r\n    }\r\n\r\n\r\n    ///Booleano para ver si una asignatura est cerrada\r\n    bool public cerrada;\r\n\r\n    /// Funcin para poner cerrada a true\r\n     function cerrar() public soloCoordinador{\r\n        require(msg.sender == coordinador, \"Solo el coordinador puede cerrar la asignatura\");\r\n        cerrada = !cerrada;\r\n    }\r\n    \r\n    /// Array de profesores\r\n    address[] public profesores;\r\n    /// Nombre de la asignatura\r\n    string public nombre;\r\n    /// Array de alumnos\r\n    address[] public matriculas;\r\n    /**\r\n     * El numero de alumnos matriculados.\r\n     *\r\n     * @return El numero de alumnos matriculados.\r\n     */\r\n    \r\n    function matriculasLength() public view returns (uint) {\r\n        return matriculas.length;\r\n    }\r\n    /**\r\n     * Permite a un alumno obtener sus propios datos.\r\n     * \r\n     * @return _nombre El nombre del alumno que invoca el metodo.\r\n     * @return _dni El dni del alumno que invoca el metodo.\r\n     * @return _email  El email del alumno que invoca el metodo.\r\n     */\r\n    function quienSoy() soloMatriculados public view returns (string memory _nombre, string memory _dni, string memory _email) {\r\n        DatosAlumno memory datos = datosAlumno[msg.sender];\r\n        _nombre = datos.nombre;\r\n        _dni = datos.dni;\r\n        _email = datos.email;\r\n        \r\n    }\r\n\r\n    /// Curso academico\r\n    string public curso;\r\n    \r\n    /// Datos de un alumno.\r\n    struct DatosAlumno {\r\n        string nombre;\r\n        string dni;\r\n        string email;\r\n    }\r\n\r\n    struct DatosProfesor {\r\n        string nombre;\r\n    }\r\n    \r\n    /// Acceder a los datos de un alumno dada su direccion.\r\n    mapping (address => DatosAlumno) public datosAlumno;\r\n    mapping(address => DatosProfesor) public datosProfesor;  \r\n\r\n    function addProfesor(address _direccionProfesor, string memory _nombreProfesor) soloOwner soloAbierta public {\r\n    require(msg.sender == owner, \"Solo el owner puede usar esta funcion\");\r\n    require(bytes(_nombreProfesor).length != 0, \"El nombre del profesor no puede estar vacio\");\r\n    \r\n    bool profesorYaAgregado = false;\r\n    for (uint i = 0; i < profesores.length; i++) {\r\n        if (profesores[i] == _direccionProfesor) {\r\n            profesorYaAgregado = true;\r\n            break;\r\n        }\r\n    }\r\n\r\n    require(!profesorYaAgregado, \"El profesor ya esta en la lista\");\r\n\r\n    datosProfesor[_direccionProfesor].nombre = _nombreProfesor;\r\n\r\n    profesores.push(_direccionProfesor);\r\n}\r\n    function profesoresLength() public view returns (uint) {\r\n        return profesores.length;\r\n    }\r\n    \r\n    /**\r\n     * Datos de una evaluacion.\r\n     */\r\n    struct Evaluacion {\r\n        string nombre;\r\n        uint fecha;\r\n        uint porcentaje;\r\n        uint notaMinima;\r\n    }\r\n    \r\n    /// Evaluaciones de la asignatura.\r\n    Evaluacion[] public evaluaciones;\r\n        \r\n    /// Tipos de notas: sin usar, no presentado, y nota normal entre 0 y 1000.\r\n    enum TipoNota {Empty, NP, Normal}\r\n    \r\n    /**\r\n     * Datos de una nota.\r\n     * La calificacion esta multiplicada por 100 porque no hay decimales.\r\n     */\r\n    struct Nota {\r\n        TipoNota tipo;\r\n        uint calificacion;\r\n    }\r\n    \r\n    // Dada la direccion de un alumno, y el indice de la evaluacion, devuelve\r\n    // la nota del alumno.\r\n    mapping (address => mapping (uint => Nota)) public calificaciones;\r\n\r\n    \r\n     /**\r\n     * Constructor.\r\n     * \r\n     * @param _nombre Nombre de la asignatura.\r\n     * @param _curso  Curso academico.\r\n     */\r\n    constructor(string memory _nombre, string memory _curso) {\r\n        require(bytes(_nombre).length != 0, \"El nombre de la asignatura no puede estar vacio\");\r\n        require(bytes(_curso).length != 0, \"El curso no puede estar vacio\");\r\n      \r\n        owner = msg.sender;\r\n        nombre = _nombre;\r\n        curso = _curso;\r\n    }\r\n    \r\n    \r\n    /**\r\n     * Los alumnos pueden automatricularse con el metodo automatricula.\r\n     * \r\n     * Impedir que se pueda meter un nombre vacio.\r\n     * \r\n     * @param _nombre El nombre del alumno. \r\n     * @param _email  El email del alumno.\r\n     */\r\n        function automatricula(string memory _nombre, string memory _dni, string memory _email) soloNoMatriculados soloAbierta public {\r\n        require(bytes(_nombre).length != 0, \"El nombre no puede estar vacio\");\r\n        require(bytes(_dni).length != 0, \"El nombre no puede estar vacio\");\r\n        require(!cerrada, \"No se pueden realizar cambios en una asignatura cerrada\");\r\n        for (uint i = 0; i < matriculas.length; i++) {\r\n        if (keccak256(abi.encodePacked(datosAlumno[matriculas[i]].dni)) == keccak256(abi.encodePacked(_dni))) {                \r\n            revert DNIAlreadyInUse(); \r\n            }\r\n    }\r\n\r\n        DatosAlumno memory datos = DatosAlumno(_nombre, _dni, _email);\r\n        datosAlumno[msg.sender] = datos;\r\n        matriculas.push(msg.sender);\r\n\r\n        \r\n    }\r\n\r\n    \r\nfunction matricular(address  _direccion, string memory  _nombre, string memory _dni, string memory _email) soloOwner public {\r\n        require(bytes(_nombre).length != 0, \"El nombre no puede estar vacio\");\r\n        require(bytes(_dni).length != 0, \"El dni no puede estar vacio\");\r\n        require(bytes(datosAlumno[_direccion].dni).length == 0, \"Este alumno ya esta registrado\");\r\n        require(!cerrada, \"No se pueden realizar cambios en una asignatura cerrada\");\r\n        for (uint i = 0; i < matriculas.length; i++) {\r\n            require(keccak256(abi.encodePacked(datosAlumno[matriculas[i]].dni)) != keccak256(abi.encodePacked(_dni)), \"Este DNI ya esta en uso por otro alumno.\");\r\n    }\r\n        DatosAlumno memory datos = DatosAlumno(_nombre, _dni, _email);\r\n        datosAlumno[_direccion] = datos;\r\n        matriculas.push(_direccion);\r\n    }\r\n\r\n\r\n    /**\r\n     * Crear una prueba de evaluacion de la asignatura. Por ejemplo, el primer parcial, o la practica 3. \r\n     *\r\n     * Las evaluaciones se meteran en el array evaluaciones, y nos referiremos a ellas por su posicion en el array.\r\n     * \r\n     * @param _nombre El nombre de la evaluacion.\r\n     * @param _fecha  La fecha de evaluacion (segundos desde el 1/1/1970).\r\n     * @param _porcentaje El porcentaje de puntos que proporciona a la nota final.\r\n     *\r\n     * @return La posicion en el array evaluaciones,\r\n     */\r\n    function creaEvaluacion(string memory _nombre, uint _fecha, uint _porcentaje, uint _notaMinima) public soloCoordinador soloAbierta returns (uint) {\r\n        require(bytes(_nombre).length != 0, \"El nombre de la evaluacion no puede estar vacio\");\r\n        require(!cerrada, \"No se pueden realizar cambios en una asignatura cerrada\");        \r\n        evaluaciones.push(Evaluacion(_nombre, _fecha, _porcentaje, _notaMinima));\r\n        return evaluaciones.length - 1;\r\n    }\r\n    \r\n    /**\r\n     * El numero de evaluaciones creadas.\r\n     *\r\n     * @return El numero de evaluaciones creadas.\r\n     */\r\n    function evaluacionesLength() public view returns(uint) {\r\n        return evaluaciones.length;\r\n    }\r\n    \r\n    /**\r\n     * Poner la nota de un alumno en una evaluacion.\r\n     * \r\n     * @param alumno        La direccion del alumno.\r\n     * @param evaluacion    El indice de una evaluacion en el array evaluaciones.\r\n     * @param tipo          Tipo de nota.\r\n     * @param calificacion  La calificacion, multipilicada por 100 porque no hay decimales.\r\n     */\r\n    function califica(address alumno, uint evaluacion, TipoNota tipo, uint calificacion) soloProfesor soloAbierta public {\r\n        require(estaMatriculado(alumno), \"Solo se puede calificar a un alumno matriculado.\");\r\n        require(evaluacion < evaluaciones.length, \"No se puede calificar una evaluacion que no existe.\");\r\n        require(calificacion <= 1000, \"No se puede calificar con una nota superior a la maxima permitida.\");\r\n        require(!cerrada, \"No se pueden realizar cambios en una asignatura cerrada\");\r\n        Nota memory nota = Nota(tipo, calificacion);\r\n        \r\n        calificaciones[alumno][evaluacion] = nota;\r\n    }\r\n    \r\n    /**\r\n     * Devuelve el tipo de nota y la calificacion que ha sacado el alumno que invoca el metodo en la evaluacion pasada como parametro.\r\n     * \r\n     * @param evaluacion Indice de una evaluacion en el array de evaluaciones.\r\n     * \r\n     * @return tipo         El tipo de nota que ha sacado el alumno.\r\n     * @return calificacion La calificacion que ha sacado el alumno.\r\n     */ \r\n    function miNota(uint evaluacion) public soloMatriculados view returns (TipoNota tipo, uint calificacion) {\r\n        require(evaluacion < evaluaciones.length, \"El indice de la evaluacion no existe.\");\r\n        \r\n        Nota memory nota = calificaciones[msg.sender][evaluacion];\r\n        \r\n        tipo = nota.tipo;\r\n        calificacion = nota.calificacion;\r\n    }\r\n    // Mtodo para que un alumno consulte su nota final\r\nfunction miNotaFinal() public soloMatriculados view returns (TipoNota, uint calificacionFinal) {\r\n    TipoNota tipoFinal = TipoNota.Empty;\r\n    calificacionFinal = 0;\r\n    bool hasNP = false;\r\n    uint notacont = 0; // Mover notacont fuera del bucle para contar notas NP\r\n\r\n    for (uint i = 0; i < evaluaciones.length; i++) {\r\n        Nota memory nota = calificaciones[msg.sender][i];\r\n\r\n        if (nota.tipo == TipoNota.Empty) {\r\n            return (TipoNota.Empty, 0);\r\n        } else if (nota.tipo == TipoNota.Normal) {\r\n            calificacionFinal += (nota.calificacion * evaluaciones[i].porcentaje) / 100;\r\n            tipoFinal = TipoNota.Normal;\r\n        } else if (nota.tipo == TipoNota.NP) {\r\n            notacont += 1;\r\n            hasNP = true;\r\n            tipoFinal = TipoNota.NP;\r\n        }\r\n    }\r\n\r\n    // Verifica si todas las notas son NP, en ese caso, la nota final es NP\r\n    if (notacont == evaluaciones.length) {\r\n        return (TipoNota.NP, 0);\r\n    }\r\n\r\n    // Limita la calificacin final a 499 si hay alguna NP\r\n    if (calificacionFinal > 499 && hasNP) {\r\n        calificacionFinal = 499;\r\n        tipoFinal = TipoNota.Normal;\r\n    }\r\n\r\n    return (tipoFinal, calificacionFinal);\r\n}\r\n\r\n    /**\r\n * Calcula la nota final de un alumno en funcin de las calificaciones obtenidas en diferentes evaluaciones.\r\n * \r\n * @param alumno La direccin del alumno para el cual se calcular la nota final.\r\n * @return tipoFinal El tipo de nota final (Normal, NP o Empty).\r\n * @return calificacionFinal La calificacin final del alumno.\r\n */\r\nfunction notaFinal(address alumno) public soloCoordinador view returns (TipoNota tipoFinal, uint calificacionFinal) {\r\n    tipoFinal = TipoNota.Empty;\r\n    calificacionFinal = 0;\r\n    bool hasNP= false;\r\n    uint notacont = 0; // Mover notacont fuera del bucle para contar notas NP\r\n\r\n    for (uint i = 0; i < evaluaciones.length; i++) {\r\n        Nota memory nota = calificaciones[alumno][i];\r\n\r\n        if (nota.tipo == TipoNota.Empty) {\r\n            return (TipoNota.Empty, 0);\r\n        } else if (nota.tipo == TipoNota.Normal) {\r\n            calificacionFinal += (nota.calificacion * evaluaciones[i].porcentaje) / 100;\r\n            tipoFinal = TipoNota.Normal;\r\n        } else if (nota.tipo == TipoNota.NP) {\r\n            notacont += 1;\r\n            hasNP = true;\r\n            tipoFinal = TipoNota.NP;\r\n        }\r\n    }\r\n\r\n    // Verifica si todas las notas son NP, en ese caso, la nota final es NP\r\n    if (notacont == evaluaciones.length) {\r\n        return (TipoNota.NP, 0);\r\n    }\r\n\r\n    // Limita la calificacin final a 499 si hay alguna NP\r\n    if (calificacionFinal > 499 && hasNP) {\r\n        calificacionFinal = 499;\r\n        tipoFinal = TipoNota.Normal;\r\n    }\r\n\r\n    return (tipoFinal, calificacionFinal);\r\n}\r\n\r\n   /**\r\n     * Consulta si una direccion pertenece a un alumno matriculado.\r\n     * \r\n     * @param alumno La direccion de un alumno.\r\n     * \r\n     * @return true si es una alumno matriculado.\r\n     */\r\n    function estaMatriculado(address alumno) private view returns (bool) {\r\n        string memory _nombre = datosAlumno[alumno].nombre;\r\n        \r\n        return bytes(_nombre).length != 0;\r\n    } \r\n    function getProfesores() public view returns (address[] memory) {\r\n        return profesores;\r\n    }\r\n    \r\n    /**\r\n     * Modificador para que una funcion solo la pueda ejecutar el profesor.\r\n     * \r\n     * Se usa en creaEvaluacion y en califica.\r\n     */\r\n    modifier soloProfesor() {\r\n    bool esProfesor = false;\r\n    for (uint i = 0; i < profesores.length; i++) {\r\n        if (profesores[i] == msg.sender) {\r\n            esProfesor = true;\r\n            break;\r\n        }\r\n    }\r\n    require(esProfesor, \"Solo permitido al profesor\");\r\n    _;\r\n}\r\n    \r\n    /**\r\n     * Modificador para que una funcion solo la pueda ejecutar un alumno matriculado.\r\n     */\r\n    modifier soloMatriculados() {\r\n        require(estaMatriculado(msg.sender), \"Solo permitido a alumnos matriculados\");\r\n        _;\r\n    }\r\n    modifier soloCoordinador() {\r\n        require(msg.sender == coordinador, \"Solo permitido al coordinador\");\r\n        _;\r\n    }\r\n    \r\n    /**\r\n     * Modificador para que una funcion solo la pueda ejecutar un alumno no matriculado aun.\r\n     */\r\n    modifier soloNoMatriculados() {\r\n        require(!estaMatriculado(msg.sender), \"Solo permitido a alumnos no matriculados\");\r\n        _;\r\n    }\r\n     modifier soloOwner() {\r\n        require(msg.sender == owner, \"Solo permitido al owner del contrato\");\r\n        _;\r\n    }\r\n    modifier soloAbierta() {\r\n        require(!cerrada, \"No se pueden realizar cambios en una asignatura cerrada\");\r\n        _;\r\n    }\r\n    error DNIAlreadyInUse();\r\n\r\n    /**\r\n     * No se permite la recepcion de dinero.\r\n     */\r\n    receive() external payable {\r\n        revert(\"No se permite la recepcion de dinero.\");\r\n    }\r\n }",
  "sourcePath": "D:\\Archivos uni\\ASIGNATURAS MASTER\\BCDA\\Prctica 4\\AsignaturaLite\\truffle\\contracts\\Asignatura.sol",
  "compiler": {
    "name": "solc",
    "version": "0.8.19+commit.7dd6d404.Emscripten.clang"
  },
  "schemaVersion": "3.4.16",
  "updatedAt": "2023-12-27T16:21:25.575Z",
  "networkType": "ethereum",
  "devdoc": {
    "kind": "dev",
    "methods": {
      "automatricula(string,string,string)": {
        "params": {
          "_email": "El email del alumno.",
          "_nombre": "El nombre del alumno. "
        }
      },
      "califica(address,uint256,uint8,uint256)": {
        "params": {
          "alumno": "La direccion del alumno.",
          "calificacion": "La calificacion, multipilicada por 100 porque no hay decimales.",
          "evaluacion": "El indice de una evaluacion en el array evaluaciones.",
          "tipo": "Tipo de nota."
        }
      },
      "constructor": {
        "params": {
          "_curso": "Curso academico.",
          "_nombre": "Nombre de la asignatura."
        }
      },
      "creaEvaluacion(string,uint256,uint256,uint256)": {
        "params": {
          "_fecha": "La fecha de evaluacion (segundos desde el 1/1/1970).",
          "_nombre": "El nombre de la evaluacion.",
          "_porcentaje": "El porcentaje de puntos que proporciona a la nota final."
        },
        "returns": {
          "_0": "La posicion en el array evaluaciones,"
        }
      },
      "evaluacionesLength()": {
        "returns": {
          "_0": "El numero de evaluaciones creadas."
        }
      },
      "matriculasLength()": {
        "returns": {
          "_0": "El numero de alumnos matriculados."
        }
      },
      "miNota(uint256)": {
        "params": {
          "evaluacion": "Indice de una evaluacion en el array de evaluaciones. "
        },
        "returns": {
          "calificacion": "La calificacion que ha sacado el alumno.",
          "tipo": "        El tipo de nota que ha sacado el alumno."
        }
      },
      "notaFinal(address)": {
        "params": {
          "alumno": "La direccin del alumno para el cual se calcular la nota final."
        },
        "returns": {
          "calificacionFinal": "La calificacin final del alumno.",
          "tipoFinal": "El tipo de nota final (Normal, NP o Empty)."
        }
      },
      "quienSoy()": {
        "returns": {
          "_dni": "El dni del alumno que invoca el metodo.",
          "_email": " El email del alumno que invoca el metodo.",
          "_nombre": "El nombre del alumno que invoca el metodo."
        }
      }
    },
    "version": 1
  },
  "userdoc": {
    "kind": "user",
    "methods": {
      "automatricula(string,string,string)": {
        "notice": "Los alumnos pueden automatricularse con el metodo automatricula.  Impedir que se pueda meter un nombre vacio. "
      },
      "califica(address,uint256,uint8,uint256)": {
        "notice": "Poner la nota de un alumno en una evaluacion. "
      },
      "cerrada()": {
        "notice": "Booleano para ver si una asignatura est cerrada"
      },
      "cerrar()": {
        "notice": "Funcin para poner cerrada a true"
      },
      "constructor": {
        "notice": "Constructor. "
      },
      "coordinador()": {
        "notice": "Direccin del coordinador"
      },
      "creaEvaluacion(string,uint256,uint256,uint256)": {
        "notice": "Crear una prueba de evaluacion de la asignatura. Por ejemplo, el primer parcial, o la practica 3.  Las evaluaciones se meteran en el array evaluaciones, y nos referiremos a ellas por su posicion en el array. "
      },
      "curso()": {
        "notice": "Curso academico"
      },
      "datosAlumno(address)": {
        "notice": "Acceder a los datos de un alumno dada su direccion."
      },
      "evaluaciones(uint256)": {
        "notice": "Evaluaciones de la asignatura."
      },
      "evaluacionesLength()": {
        "notice": "El numero de evaluaciones creadas."
      },
      "matriculas(uint256)": {
        "notice": "Array de alumnos"
      },
      "matriculasLength()": {
        "notice": "El numero de alumnos matriculados."
      },
      "miNota(uint256)": {
        "notice": "Devuelve el tipo de nota y la calificacion que ha sacado el alumno que invoca el metodo en la evaluacion pasada como parametro. "
      },
      "nombre()": {
        "notice": "Nombre de la asignatura"
      },
      "notaFinal(address)": {
        "notice": "Calcula la nota final de un alumno en funcin de las calificaciones obtenidas en diferentes evaluaciones. "
      },
      "owner()": {
        "notice": "Direccin del owner"
      },
      "profesores(uint256)": {
        "notice": "Array de profesores"
      },
      "quienSoy()": {
        "notice": "Permite a un alumno obtener sus propios datos. "
      },
      "setCoordinador(address)": {
        "notice": "Setter de la direccin del coordinador"
      },
      "version()": {
        "notice": "Version 2022 Lite - Teoria"
      }
    },
    "notice": "El contrato Asignatura que representa una asignatura de la carrera.  Version Lite - Practicas",
    "version": 1
  }
}